:020000020000FC
:10000000E5E2F0E00994189518951895189518955B
:100010001895189518951895189518951895189578
:100020001895189518951895189518951895189568
:100030001895189518951895189518951895189558
:1000400018951895189518951895E0E8F0E090E047
:100050009193E1E8F0E09CE09193E9E8F0E092E030
:100060009193E8E8F0E090E79193F894A89598E1EF
:10007000E0E6F0E0908399E290837894EEE5F0E09A
:1000800098E09193EDE5F0E09FEF9193A0E0B9E067
:1000900000E080E098E00E930197E9F7E4E2F0E0F9
:1000A00094E09193E5E2F0E090E09193E7E2F0E0F4
:1000B00090E09193E8E2F0E090E09193EAE2F0E0E2
:1000C00090E09193EBE2F0E094E19193E6E3F0E0CD
:1000D000908191FFFDCFE6E3F0E090819260908304
:1000E000A895E0E0F1E0908191609083E0E0F1E09C
:1000F00090819D7F9083E0E0F1E0908190FB92F908
:100100009083E9E2F0E0908192FD05C0E0E0F1E04B
:1001100090819B7F9083E0E0F1E0908192FF05C0A9
:10012000E0E0F1E0908192609083E0E0F1E0908186
:1001300090FB92F99083E5E2F0E0908192FD05C09A
:10014000E0E0F1E090819B7F9083E0E0F1E090813E
:1001500092FF05C0E0E0F1E0908192609083E0E0E2
:10016000F1E0908191FB90F99083E9E2F0E09081D9
:1001700094FF05C0E0E0F1E090819E7F9083E0E095
:10018000F1E0908190FBE5E2F0E0908192F99083BC
:08019000E6E6F0E00994FFCF60
:00000001FF
