:020000020000FC
:10000000E5E2F0E00994189518951895189518955B
:100010001895189518951895189518951895189578
:100020001895189518951895189518951895189568
:100030001895189518951895189518951895189558
:1000400018951895189518951895E0E8F0E090E047
:100050009193E1E8F0E09CE09193E9E8F0E092E030
:100060009193E8E8F0E090E79193F894A89598E1EF
:10007000E0E6F0E0908399E290837894EEE5F0E09A
:1000800098E09193EDE5F0E09FEF9193A0E0B9E067
:1000900000E080E098E00E930197E9F7E4E2F0E0F9
:1000A00090E09193E5E2F0E090E09193E7E2F0E0F8
:1000B00090E09193E8E2F0E090E09193EAE2F0E0E2
:1000C00090E39193EBE2F0E09CE89193E6E3F0E0BB
:1000D000908191FFFDCFE6E3F0E090819260908304
:1000E000A895E0E0F1E0908191609083E9E2F0E092
:1000F000908193FD05C0E0E0F1E090819E7F9083C8
:10010000E0E0F1E0908191FF05C0E0E0F1E0908156
:100110009E7F9083E0E0F1E0908190FBEBE2F0E0E5
:10012000908195F99083E0E0F1E090819160908377
:10013000E9E2F0E0908192FD05C0E0E0F1E090811D
:100140009E7F9083E0E0F1E0908192FF05C0E0E0C7
:10015000F1E090819E7F9083E0E0F1E0908190FB60
:10016000EBE2F0E0908194F99083E0E0F1E090819F
:1001700091609083E9E2F0E0908197FD05C0E0E0B6
:10018000F1E090819E7F9083E0E0F1E0908190FB30
:1001900091F99083E0E0F1E0908191609083E9E251
:1001A000F0E0908197FD05C0E0E0F1E090819E7F56
:1001B0009083E0E0F1E0908190FB92F99083E6E695
:0601C000F0E00994FFCFFE
:00000001FF
